:020000040800F2
:10000000A8150020ED940008F5940008F794000866
:10001000F9940008FB940008FD940008000000001B
:10002000000000000000000000000000FF94000835
:1000300001950008000000000395000805950008E0
:100040000795000807950008079500080795000820
:100050000795000807950008079500080795000810
:100060000795000807950008079500080795000800
:10007000079500080795000827630008116300082A
:1000800007950008079500080795000807950008E0
:10009000079500080795000807950008DB6300082E
:1000A00007950008079500080795000807950008C0
:1000B0007563000807950008079500080795000874
:1000C00007950008079500080795000807950008A0
:1000D0000795000807950008079500084B6300087E
:1000E000936300080795000807950008DFF80CD017
:1000F00009F0A8FE00480047D1010008A81500201B
:1001000010B5FE48007802280DD1FC48C178C078AF
:10011000401CFA4AD070142905D105F036F90020A8
:10012000F6490870C87010BD10B505F0D5FFF44849
:1001300081798079401CF24A9071142910D10020F5
:100140001146887105F0DCFFED4908710846007919
:10015000012805D1EB48407A40F00800E94948728F
:1001600004F01EF9022808D10020E7498876E54806
:10017000407A40F00400E3494872E44890F83C10AB
:1001800090F83C00401CE14A82F83C0014290ED152
:100190000020114681F83C00D848008940F0040056
:1001A000D64908810846008940F00800088110BD42
:1001B00001B581B000200090D549019848430090D6
:1001C00002E00098401E009000980028F9D10CBD74
:1001D00000F094FB0120FFF7EBFF00F0C9FA0A20C2
:1001E000FFF7E6FF06F0F0FB0A20FFF7E1FF04F05F
:1001F00024F80120FFF7DCFF00F0F2FB0120FFF7FD
:10020000D7FF02F0FDF90120FFF7D2FF05F0C4F996
:100210000120FFF7CDFF05F0A9FE0120FFF7C8FF81
:1002200005F00AF90120FFF7C3FF05F0DCF9012012
:10023000FFF7BEFF03F0F6FE0120FFF7B9FF6FF0F6
:100240007F41B1F1807F01D301201DE021F07F408B
:10025000401E4FF0E022506150170F22002807DAAD
:1002600013071D0EAB4B00F00F04241F1D5503E0B8
:1002700013071C0EA84B1C5400BF00204FF0E022B7
:10028000906101201061002008B100BFFEE70A2044
:10029000FFF78EFF0121A14808F091FC0121A04841
:1002A00006F085FE0A20FFF783FF01219B481430EA
:1002B00008F085FC01219B4806F079FE0A20FFF733
:1002C00077FF02208D490870012048700020887057
:1002D0008C49487194494860086088600861C8602A
:1002E0004861924908700220874988750020087586
:1002F00064208649087300208149C8710120087173
:1003000000208B490876814981F83C007B49C87000
:100310007D49487501208449087731E106F0B7F836
:1003200006F0D2F903F0FFFF8148007E01287DD15D
:1003300000207F4908767F48B0F900007E49B1F976
:100340000010002202FB010000B27A4908807B48BD
:10035000B0F900007A49B1F9001002FB010000B2C7
:1003600076490880774890F858107748B0F900002F
:10037000764AB2F9002001FB0021724890F858003B
:10038000401C91FBF0F000B2704908806948B0F958
:100390000000694908806948B0F900006849088090
:1003A0006A48B0F90000684908806949B1F900104D
:1003B000684AB2F90020032303FB0210C11700EBC7
:1003C0009171891009B2624A11806349B1F9001034
:1003D000624AB2F9002003FB0210C11700EB9171D1
:1003E000891009B25C4A11805D49B1F900105D4A7B
:1003F000B2F9002003FB0210C11700EB91718910C4
:1004000009B2574A11805248B0F90000514908809A
:100410005148B0F90000514908801046B0F9000079
:10042000504908804348B0F9000000E030E04049FE
:1004300008804248B0F9000048804448B0F9000004
:1004400088804348B0F90000C8804348B0F90000F4
:1004500008811046B0F9000048812A48407860B908
:100460002648008940F002002449088103F0A8FAD8
:100470004FF0E02080693C4908602248C07938B1DB
:100480001E48008940F002001C49088103F0CBFCA3
:100490001C48407898B11B48C07980B91848007949
:1004A00068B91948807E012809D11648407A20F0A1
:1004B00008001449487201201349087502E0002021
:1004C000114908750F484079012806D100200D49CF
:1004D0004871FFF729FEFFF713FE0A48407801280C
:1004E00004D10848C07908B902F09AFD1F48006895
:1004F00003F0EBF81E4800683CE00000620D0020AD
:10050000E00F0020540D0020380D00206C0D00205D
:100510004019010018ED00E000E400E0580002403E
:100520000038014000440040180D00202011002038
:10053000FC0C00205000002044000020520000204D
:1005400046000020500C00204800002054000020ED
:10055000560000204A000020580000204C000020D7
:100560005A0000204E00002064000020A00000205F
:10057000A400002003F064F901F0ABF802F060F988
:10058000CCE610B50249487A05F0E8F810BD000045
:10059000540D00200CB50020019000906B480068BD
:1005A00040F480306949086000BF6848006800F482
:1005B000003000900198401C0190009818B90198F3
:1005C000B0F5A06FF1D16148006810F4003F02D08F
:1005D0000120009001E0002000900098012842D105
:1005E0005B48006840F01000594908600846006800
:1005F00020F0030008600846006840F00200086030
:10060000524840685149486008464068486008467A
:10061000406840F4806048600846406820F47C10E0
:1006200048600846406840F4E810486008460068A2
:1006300040F08070086000BF4448006810F0007F00
:10064000FAD04248406820F003004049486008461C
:10065000406840F00200486000BF3C48406800F03D
:100660000C000828F9D10CBD10B5FFF793FF10BDA1
:1006700010B53648006840F001003449086008466B
:1006800040683449084031494860084600683249AA
:1006900008402E4908600846006820F48020086061
:1006A0000846406820F4FE0048604FF41F00886050
:1006B000FFF7DAFF4FF000602849086010BD10B561
:1006C000002100200022214B5B6803F00C0121B1C6
:1006D000042906D0082928D107E0214B214C2360AA
:1006E00027E01F4B1F4C236023E0184B5B6803F48B
:1006F0007010164B5B6803F48032022303EB9040CA
:1007000022B9194B4343174C23600DE00F4B5B6834
:1007100013F4003F04D0144B4343124C236003E016
:100720000F4B43430F4C236003E00D4B0D4C2360F4
:1007300000BF00BF054B5B68C3F303130B4CE15CC8
:10074000084B1B68CB40074C236010BD00100240D3
:10075000002002400000FFF8FFFFF6FE08ED00E079
:1007600000127A001C00002000093D00200000203B
:1007700000B591B000214FF0006006F031FF4FF45A
:100780000070ADF82C0018208DF82F0003208DF894
:100790002E000BA9544806F09FFD4FF48060ADF881
:1007A0002C0004208DF82F000BA94F4806F094FD73
:1007B0000E208DF8300002208DF8310000208DF8D9
:1007C000320001208DF833000CA806F0D6FE0F2071
:1007D0008DF8300004208DF8310000208DF83200B3
:1007E00001208DF833000CA806F0C7FE3F480090AA
:1007F0003F48019010200290002003900490802038
:10080000059000200690079008904FF480500990C2
:1008100000200A9040213548001F06F0B0FC6946D0
:10082000344808F0A1F901220221324808F0D3F936
:100830000021304808F0C3F92C4800902E48019060
:1008400000200290642003900020049080200590F6
:1008500000200690079020200890000209900020B8
:100860000A9069462348143008F07EF90121214896
:10087000143008F0A4F94FF461400D900020ADF859
:100880003800ADF83A00ADF83C00ADF840000C205F
:10089000ADF83E000DA91548001F06F0FCFA012234
:1008A00080211248001F06F0B3FB012240210F48AF
:1008B000001F06F0ADFB00210C48001F06F077FB7F
:1008C00011B000BD70B504460D46E1B20748001FE7
:1008D00006F0DAFB00BF40210448001F06F042FC8E
:1008E0000028F8D0204670BD0008014004380140BF
:1008F000EC070020440002407C09002010B54FF4B2
:10090000803006F0D3F806F010F90446012C25D10A
:10091000102007F0BDFD022007F0A6FD002006F024
:100920004AF9002006F059F94FF4A06006F04CF99E
:100930004FF4E011200406F021F9012006F02AF915
:1009400000BF392006F0D5F80028FAD0022006F0C2
:1009500024F900BF06F02AF90828FBD101211D2047
:1009600006F0EEF90121C80206F0EAF9012107209C
:1009700006F0F3F90121880306F0E2F901214804A9
:1009800006F0EBF90121880406F0E7F90121084699
:1009900006F0C9F9002006F043F90B4806F03CFCCC
:1009A0000A4806F039FC0A4806F036FC094806F009
:1009B0004DFE4FF0804006F049FE074806F046FE27
:1009C000064806F043FE10BD00080140000C01403F
:1009D00000100140002C01400004004000080040CD
:1009E00000B589B000214FF0006006F0F9FD01214B
:1009F000864806F040FD2020ADF8040003208DF865
:100A0000060010208DF8070001A9814806F064FC5B
:100A10008020ADF8040001208DF8060018208DF824
:100A2000070001A97A4806F057FC40F20130ADF802
:100A3000040001208DF8060018208DF8070001A998
:100A4000744806F049FC0120ADF818000020ADF80C
:100A50001A004FF47A70ADF81C000020ADF81E00AB
:100A60008DF8200006A96C4806F0C4FE6020ADF8A1
:100A700008000120ADF80A000020ADF80C00ADF828
:100A80000E00ADF810000820ADF812004001ADF8DE
:100A900014000020ADF8160002A95F4806F0E7FE3A
:100AA00001215D4807F002FA01215B4807F00AFACC
:100AB0004FF47A70ADF81C000020ADF81800ADF8C6
:100AC0001E00ADF81A0006A9544806F093FE012254
:100AD0000021524807F091FA6020ADF8080001208B
:100AE000ADF80A000020ADF80E00ADF8100002A924
:100AF0004A4806F0FEFE0821484807F010FB012096
:100B0000ADF80A000020ADF80E0002A9434806F037
:100B10003DFF0821414807F00FFB01213F4807F046
:100B2000C5FA01213D4807F0C1F94FF47A70ADF8DC
:100B30001C000020ADF81800ADF81E00ADF81A003A
:100B400006A9374806F056FE01220021344807F076
:100B500054FA6020ADF808000120ADF80A0000202A
:100B6000ADF80E00ADF8100002A92D4806F00EFFFA
:100B700008212B4807F0E0FA0120ADF80A00002018
:100B8000ADF80E0002A9264806F04BFF08212448C4
:100B900007F0DBFA0121224807F088FA01212048FA
:100BA00007F084F948F6A040ADF81C000020ADF82D
:100BB0001800ADF81E00ADF81A0006A94FF08040ED
:100BC00006F018FE01220021900707F016FA012115
:100BD000880707F06BFA01221146900707F081F9A8
:100BE0000121880707F062F91C208DF80000012020
:100BF0008DF8010000208DF8020001208DF803001F
:100C0000684606F0BAFC09B000BD000000043000E0
:100C100000080140000C0140002C0140000400408D
:100C20000008004002460B7883EA020080EA0013C5
:100C3000D8B20B881B1283EA002383EAC00383EA3D
:100C400020130B8070472DE9F04707460E4691466A
:100C5000984600BF07EB0710DD4901EB0010054681
:100C6000384601F020FE04464FF0000A00202070B4
:100C7000E0780A2811D2DFE800F0050611302838A4
:100C8000404D5E7F00BFFE2E07D10220E0700020A5
:100C9000E870AE70284601F076FE91E0207850B101
:100CA0006078401C6070A078401CA070002020700C
:100CB0000120E07008E0EE700020207131462846E7
:100CC00001F067FE0420E0707AE02E71314628467C
:100CD00001F05FFE0320E07072E06E71314628463D
:100CE00001F057FE0520E0706AE0AE7131462846FB
:100CF00001F04FFE0620E07062E0EE7131462846BA
:100D000001F047FEE87810B90820E07001E0072004
:100D1000E07055E02179481C207105F10800465427
:100D20003146284601F035FE2079E978884201D124
:100D30000820E07044E0E879A64A115C284601F0FA
:100D400028FE2878B04210D0A078401CA070002067
:100D500020700120E070FE2E0DD10220E0700020F6
:100D6000E870284601F00FFE05E00920E0702179C7
:100D700005F10800465423E02888B6EB202F10D058
:100D8000A078401CA070002020700120E070FE2E92
:100D900015D10220E0700020E870284601F0F3FD34
:100DA0000DE001202070E0702079401C05F1080161
:100DB0000E544FF488722946484608F0A9FB00BF3C
:100DC00000BF0AF1010A2078012808D12879607152
:100DD000208908B9002060812089401C2081607929
:100DE000401C88F805002089A8F80800A078A8F819
:100DF0000A000020A0702078BDE8F0872DE9F041BE
:100E000007460E4615460021734807F0D8FE2946CE
:100E1000714807F0E9FE002070494870002404E0A2
:100E2000305D6F490855601C84B2AC42F8DB01218B
:100E3000694807F0C4FEBDE8F08170B506460C466F
:100E4000154624B92946304608F07BFB04E02A46C3
:100E50002146304608F05CFB70BD01B58AB00A98A7
:100E600045282BD2DFE800F0232B333843484D527E
:100E7000575C676C7E90A2FCFAF9F8F7F6F5F4F38C
:100E8000F2F1F0EFEEEDECEBEAE9E8E7E6E5E4E3BA
:100E9000E2E1E0DFDEDDDCDBDAD9D8D7D6D5D4D3AA
:100EA000D2D1D0CFCECDCCCBCAC9C8C7C6004D4851
:100EB0000068099008F0F9FD4B49087000E24948C4
:100EC0004068099008F0F1FD47494880FEE3454835
:100ED000806845494860F9E34248C0680146099086
:100EE0004FF0814008F09EFB3F498860EEE33D48AB
:100EF00000693D49C860E9E33A4840693A490861F8
:100F0000E4E33848806938494861DFE33548C0691F
:100F100035498861DAE33348006A3349C861D5E36B
:100F20003048406A014609904FF0814008F07AFB52
:100F30002D490862CAE32B48806A2B494862C5E301
:100F40002848C06A059008F0E3FD0022274BCDE950
:100F5000060108F0F6FCCDE9080108F015FE22496B
:100F60008862B3E31F48006B059008F0D1FD0022B2
:100F70001E4BCDE9060108F0E4FCCDE9080108F0BC
:100F800003FE1949C862A1E31648406B059008F0BA
:100F9000BFFD0022154BCDE9060108F0D2FCCDE9DA
:100FA000080108F0F1FD104908638FE30D48806BDC
:100FB000059008F0ADFD00220D4BCDE9060108F0CB
:100FC000C0FCCDE9080108F0DFFD074988637DE337
:100FD00090010020B8A9000844000240620D0020E2
:100FE000EC070020AC0D0020500C00200000594000
:100FF00000408F4060E355E33CE323E30AE3FFE274
:10100000DFE2BFE29FE294E289E27EE273E268E21D
:101010005DE24DE23DE22DE20AE2FFE1F3E1E7E1CC
:10102000DBE1CAE1B9E1A8E19DE192E187E17CE180
:1010300071E166E15BE14FE143E137E12BE120E162
:1010400015E10BE101E1D4E0C1E0AEE09BE091E00D
:1010500087E07DE05EE04BE038E025E012E0FFE76E
:10106000F848C06B059008F053FD0022F64BCDE91F
:10107000060108F066FCCDE9080108F085FDF3499A
:10108000C86323E3EF48006C059008F041FD00229F
:10109000ED4BCDE9060108F054FCCDE9080108F05C
:1010A00073FDEA49086411E3E648406C059008F0D6
:1010B0002FFD0022E44BCDE9060108F042FCCDE90A
:1010C000080108F061FDE1494864FFE2DD48806CF9
:1010D000059008F01DFD0022DB4BCDE9060108F06C
:1010E00030FCCDE9080108F04FFDD8498864EDE2F5
:1010F000D448C06C059008F00BFD0022D24BCDE91E
:10110000060108F01EFCCDE9080108F03DFDCF49BD
:10111000C864DBE2CB48006D019008F0F9FCCC4AD2
:10112000CC4BCDE9020108F09AFB0022CA4BCDE975
:10113000040108F006FCC94AC94BCDE9060108F0D4
:10114000E7FACDE9080108F01FFDC0494863BDE298
:10115000BC48406D099008F0A8FCBC4981F85500D6
:10116000B4E2B848806D099008F09FFCB74981F857
:101170005600ABE2B348C06D099008F096FCB34945
:1011800081F85700A2E2AF48006E4FF07E510990FF
:1011900008F016FD04D10120AC4981F8520003E0AB
:1011A000FF20AA4981F8520090E2A648406E4FF015
:1011B0007E51099008F004FD04D10120A34981F873
:1011C000530003E0FF20A14981F853007EE29D48CF
:1011D000806E4FF07E51099008F0F2FC04D101209E
:1011E0009A4981F8540003E0FF20984981F854009F
:1011F0006CE29448C06E099008F057FC934981F85E
:101200005000084690F8500040B94FF47A70954964
:101210000880954908809549088015E08B4890F82A
:101220005000012808D14FF4FA608E4908808E4999
:1012300008808E49088007E04FF47A608949088069
:10124000894908808949088040E27E48006F0990FA
:1012500008F02BFC7D4981F8510037E27948406F56
:10126000099008F022FC794981F858002EE275486F
:10127000806F099008F000FC00B27449A1F85E008C
:1012800024E27048C06F099008F0F6FB00B26F4985
:10129000A1F860001AE26B48D0F88000099008F0CD
:1012A000EBFB00B26949A1F85A000FE26548D0F89B
:1012B0008400099008F0E0FB00B26449A1F85C00EA
:1012C00004E26048D0F88800099008F0D5FB00B22D
:1012D0005E49A1F86200F9E15A48D0F88C00099003
:1012E00008F0CAFB00B25949A1F86400EEE1554884
:1012F000D0F89000099008F0D8FB544981F86600B6
:10130000E4E15048D0F89400099008F0CEFB4F4932
:1013100081F86700DAE14B48D0F89800099008F0AE
:10132000C4FB4A4981F86800D0E14648D0F89C00E7
:10133000099008F0BAFB454981F86900C6E14148C7
:10134000D0F8A000099008F0B0FB404981F86A008D
:10135000BCE13C48D0F8A400099008F0A6FB3B494A
:1013600081F86B00B2E13748D0F8A800099008F086
:101370009CFB364981F86C00A8E13248D0F8AC00FB
:10138000099008F079FB00B23049A1F874000846D2
:10139000B0F874003649888198E12A48D0F8B00046
:1013A000099008F069FB00B22849A1F876000846C8
:1013B000B0F876002E49C88188E12248D0F8B40000
:1013C000099008F059FB00B22049A1F878000846BE
:1013D000B0F878002649088278E11A48D0F8B800B9
:1013E000099008F049FB00B21849A1F87A006DE1B4
:1013F0001448D0F8BC00099008F03EFB00B2134935
:10140000A1F87C0062E10F48D0F8C000099008F014
:1014100033FB00B20D49A1F87E0057E10948D0F82E
:10142000C400099008F041FB084981F880004DE1B3
:101430000448D0F8C800099008F037FB034981F848
:10144000810043E1AC0D002000408F40500C002093
:10145000B81E85EB51B89E3F00E06F400AD7A370DD
:101460003D0AEF3F2C2C01402C0400402C0800408A
:10147000FC0C0020FE48D0F8CC00FE49089008F093
:10148000CBF8099008F0F8FA00B2FB49A1F8820005
:101490001CE1F748D0F8D000F649089008F0BCF8F5
:1014A000099008F0E9FA00B2F349A1F884000DE1CF
:1014B000EF48D0F8D400EF49089008F0ADF8099053
:1014C00008F0DAFA00B2EC49A1F88600FEE0E8483C
:1014D000D0F8D800099008F0E8FAE74981F88800C8
:1014E000F4E0E348D0F8DC00099008F0DEFAE249C5
:1014F00081F88900EAE0DE48D0F8E000099008F0C1
:10150000D4FADD4981F88A00E0E0D948D0F8E40057
:10151000099008F0CAFAD84981F88B00D6E0D4487F
:10152000D0F8E800099008F0C0FAD34981F88C009F
:10153000CCE0CF48D0F8EC00099008F0B6FACE49DC
:1015400081F88D00C2E0CA48D0F8F0000146029050
:10155000C84808F061F8039008F0DAFA0022C74B97
:10156000CDE9040108F0EDF90022C54BCDE90601F3
:1015700008F0CEF8CDE9080108F006FBBE49C1F835
:101580009000A3E0BA48D0F8F40001460290B948B0
:1015900008F042F8039008F0BBFA0022B74BCDE9FF
:1015A000040108F0CEF90022B54BCDE9060108F0A0
:1015B000AFF8CDE9080108F0E7FAAF49C1F89400A7
:1015C00084E0AB48D0F8F80001460290A94808F042
:1015D00023F8039008F09CFA0022A84BCDE90401FF
:1015E00008F0AFF90022A64BCDE9060108F090F80B
:1015F000CDE9080108F0C8FA9F49C1F8980065E0F4
:101600009B48D0F8FC00099008F04FFA9A4981F8FD
:101610009C005BE09648D0F800019649049007F0E2
:10162000FBFF059008F074FA0022944BCDE9060107
:1016300008F087F9CDE9080108F0A6FA8E49C1F84B
:10164000A00043E08A48D0F804018A49049007F0DA
:10165000E3FF059008F05CFA0022884BCDE9060113
:1016600008F06FF9CDE9080108F08EFA8249C1F857
:10167000A4002BE07E48D0F808017E49049007F0D2
:10168000CBFF059008F044FA00227C4BCDE906011F
:1016900008F057F9CDE9080108F076FA7649C1F863
:1016A000A80013E07248D0F80C01099008F0FDF989
:1016B000714981F86D0009E06D48D0F8100109907A
:1016C00008F0F3F96C4981F86E0000BF00BF0BB061
:1016D00000BD00B593B06B48407800287DD06948C4
:1016E000007800287AD1674880780A2877D2DFE826
:1016F00000F00552AAEFEEEDECEBEAE96148007A62
:1017000010F0040F43D05F48008920F004005D49C9
:1017100008810A200B90C8200C905B480D90012096
:101720000E9000200F90DC201090002011900420DB
:101730001290119808900E988DF824000F988DF84B
:10174000250010988DF8260012988DF827000320A8
:101750008DF82800092208A90D98083007F0D8FE56
:1017600000210D98C171322009230090DDE90B1290
:101770000D9801F09FF84449444801F0F7F84449B6
:1017800008800846028841490020FFF737FB012006
:101790003C49887068E337493E48006807F042FFDB
:1017A0000F9008F069F900B2324912903A48006887
:1017B00007F038FF0F9008F05FF900B22D49119043
:1017C0003648006807F02EFF0F9008F055F900B278
:1017D0001090334BB3F9003002E0A0E345E33DE362
:1017E000DDE910201299CDE90732CDE909012D4834
:1017F000B0F900002C49B1F900102C4AB2F90020D0
:101800002B4BB3F90030CDE90332CDE9051029485F
:10181000B0F900000290002000901B4AC8210190FE
:101820000A2001F0F7F81849184801F09FF8184904
:1018300008800846028815490020FFF7DFFA0220D9
:101840001049887010E30A200990C8200A900E48B9
:101850000B9000200C9018480068019008F058F98F
:10186000164A174BCDE9020107F0F9FF002230E0DC
:10187000AC0D00200000C842500C002000002440A5
:101880000000F03F620D0020D0050020EC06002093
:101890003E0000208C0000209000002094000020DA
:1018A0005400002052000020500000205A00002068
:1018B0005800002056000020180D00206E861BF0F6
:1018C000F921094090E25BE2D4E164E1FDE0F8E057
:1018D000A6E0FE4BCDE9040108F033F8CDE906019E
:1018E00008F052F90D90FA484068019008F010F99C
:1018F000F84AF94BCDE9020107F0B1FF0022F34BA2
:10190000CDE9040108F01DF8CDE9060108F03CF925
:101910000E90EF488068019008F0FAF8ED4AEE4B1F
:10192000CDE9020107F09BFF0022E84BCDE904015D
:1019300008F007F8CDE9060108F026F90F90E44811
:10194000C068019008F0E4F8E24AE34BCDE90201F7
:1019500007F085FF0022DD4BCDE9040107F0F1FF20
:10196000CDE9060108F010F91090D94800690190FE
:1019700008F0CEF8D74AD84BCDE9020107F06FFF47
:101980000022D24BCDE9040107F0DBFFCDE90601CF
:1019900008F0FAF81190CE484069019008F0B8F8C4
:1019A000CC4ACD4BCDE9020107F059FF0022C74BCD
:1019B000CDE9040107F0C5FFCDE9060108F0E4F820
:1019C00012900C9802900D9803900E9804900F9826
:1019D00005901098069011980790129808901C2274
:1019E00002A90B98083007F093FD1E210B98C171D6
:1019F00027201C230090DDE909120B9800F05AFF04
:101A0000B649B74800F0B2FFB649088008460288D8
:101A1000B3490020FFF7F2F90320B349887023E2AD
:101A2000B148007A10F0020F47D0AF48008920F08B
:101A30000200AD4908810A200B90C8200C90A748ED
:101A40000D90AA4880680E90A948007AA849497864
:101A50000844401EC0B20F9000201090A448407A65
:101A60001190002012900E9809900F988DF8280080
:101A700010988DF8290011988DF82A0012988DF889
:101A80002B00DDE909120D98C0E902129B210D9887
:101A9000C1714C2008230090DDE90B120D9800F075
:101AA00009FF8E498E4800F061FF8E490880084684
:101AB00002888B490020FFF7A1F904208A49887029
:101AC000D2E1052088498870CEE18748007A10F07D
:101AD000200F5CD08448008920F0200082490881D2
:101AE0008448B0F930008349B1F92E10814AB2F927
:101AF0002C20804BB3F92A30CDE90D32CDE90F10FF
:101B00007C48B0F928007B49B1F92620B1F92410AE
:101B1000784BB3F92230CDE90931CDE90B20754876
:101B2000B0F920007349B1F91E10724AB2F91C20B5
:101B3000704BB3F91A30CDE90532CDE907106D4885
:101B4000B0F91820B0F91610B0F91400694BB3F9C8
:101B50001230CDE90130CDE903126648B0F910002A
:101B600000906448B0F90E0003465C4AC821129008
:101B70000A2000F085FF5949594800F0F7FE5949FD
:101B800008800846028856490020FFF737F90620EA
:101B90005549887068E15448007A10F0080F65D004
:101BA0005148008920F008004F4908810A20089018
:101BB000C820099049480A904F48C06807904F488C
:101BC000C0680690079907F063FD0B904A4840688B
:101BD000079007F025FF0C9048484068079007F0F1
:101BE0001FFF0D90444880690E904548008880B2E0
:101BF0000F904448008880B210904348008880B21B
:101C000011904248008880B212900B9802900C9874
:101C100003900D9804900E9805900F98ADF8180059
:101C20001098ADF81A001198ADF81C001298ADF894
:101C30001E00182202A90A98083007F069FC9C21AE
:101C40000A98C1710D2018230090DDE908120A9846
:101C500000F030FE2149224800F088FE214908802A
:101C6000084602881E490020FFF7C8F807201E49D1
:101C70008870F9E01C48007A10F0010F7CD01A48F7
:101C8000008920F00100184908810A200990C82025
:101C90000A9012480B9001200C901D4800680088A3
:101CA0000D901B48006840880E9019480068808895
:101CB0000F9017480068C088109015480068008988
:101CC0001190134800684089129023E0008066401C
:101CD000180D00206E861BF0F9210940D005002068
:101CE000EC0600203E000020620D0020E00F0020E6
:101CF000540D00206C0D00203C100020EC0F002043
:101D000034010020300100202C0100202801002097
:101D10005C0000200D98ADF814000E98ADF8160088
:101D20000F98ADF818001098ADF81A001198ADF89A
:101D30001C001298ADF81E000C988DF820000D22A2
:101D400005A90B98083007F0E3FB9E210B98C171A1
:101D500098200D230090DDE909120B9800F0AAFDF0
:101D6000ED49EE4800F002FEED4908800846028881
:101D7000EA490020FFF742F80820EA49887073E03A
:101D8000E848007A10F0400F2AD0E648008920F099
:101D90004000E44908810A200F90C8201090DE48D6
:101DA00011900120129012980E909DF83810119801
:101DB00001729F211198C171B22001230090DDE9C9
:101DC0000F12119800F076FDD349D44800F0CEFDF3
:101DD000D349088008460288D0490020FFF70EF852
:101DE0000920D04988703FE0CE48007A10F0800F7B
:101DF00030D0CC48008920F08000CA490881CA4808
:101E0000807E0021079108910B46CDE90910C64854
:101E10000069C5498968C44AD268CDE90503CDE99E
:101E20000321C148407E0290BF484069C117BA4AA9
:101E3000CDE90001C8210A2000F0B8FDB649B74835
:101E400000F094FDB649088008460288B349002096
:101E5000FEF7D4FF0A20B349887005E00020B1499D
:101E600088700220087000BF00BFAE4800780128CB
:101E70005BD1AE48B0F83002462851DA0A200B9008
:101E8000C8200C90A4480D90A848B0F8301200F576
:101E90008C7050F821000E90A448B0F83002A3498D
:101EA00051F820000F90092010904620119008460C
:101EB000B0F8300212900F9804901198ADF8140009
:101EC0001298ADF8160010988DF82800102206A878
:101ED0000E99FEF7B2FF192204A90D98083007F0F9
:101EE00017FB16210D98C171DC2019230090DDE944
:101EF0000B120D9800F0DEFC8749884800F036FD93
:101F0000874908800846028884490020FEF776FF4A
:101F10008648B0F83002401C8449A1F8300204E041
:101F200000208049C8700220087013B000BD80A056
:101F30007E49C1F8180180A17C48C0F81C1182A11B
:101F4000C0F8201182A1C0F8241183A1C0F8281183
:101F500083A1C0F82C1184A1C0F8301184A1C0F86D
:101F6000341185A1C0F8381185A1C0F83C1186A1B3
:101F7000C0F8401186A1C0F8441188A1C0F84811EA
:101F800089A1C0F84C118BA1C0F850118DA1C0F8E7
:101F900054118FA1C0F8581190A1C0F85C1193A101
:101FA000C0F8601194A1C0F8641196A1C0F868113E
:101FB00097A1C0F86C119AA1C0F870119BA1C0F84C
:101FC00074119DA1C0F878119FA1C0F87C11A2A145
:101FD000C0F88011A4A1C0F88411A6A1C0F888118E
:101FE000A7A1C0F88C11A9A1C0F89011ABA1C0F8AD
:101FF0009411AEA1C0F89811B0A1C0F89C11B3A182
:10200000C0F8A011B5A1C0F8A411B8A1C0F8A811DA
:10201000BAA1C0F8AC11BCA1C0F8B011BDA1C0F804
:10202000B411C0A1C0F8B811C2A1C0F8BC11C5A1BB
:10203000C0F8C011C7A1C0F8C411C9A1C0F8C81127
:10204000CAA1C0F8CC11CCA1C0F8D011CEA1C0F863
:10205000D411D1A1C0F8D811D3A1C0F8DC11D4A1FA
:10206000C0F8E011D6A1C0F8E411D9A1C0F8E81178
:10207000DBA1C0F8EC11DDA1C0F8F011DFA1C0F8C0
:10208000F411E2A1C0F8F811E3A1C0F8FC11E5A138
:10209000C0F80012E6A1C0F80412E9A1C0F80812C5
:1020A000EBA1C0F80C12EEA1C0F81012F0A1C0F81C
:1020B0001412F2A1C0F81812F3A1C0F81C12F5A175
:1020C000C0F82012F6A1C0F82412FAA1C0F8281214
:1020D000FE4816490860FE484860FE488860FE4891
:1020E000C860FE480861FB484861FD488861FB48BC
:1020F000C861F8480862F8484862FA488862FA48B5
:10210000C862FA480863FA484863F24888630020C6
:10211000C863F0480864EDE1D0050020EC0600201B
:102120003E000020620D0020100C0020AC0D0020AD
:1021300056455253494F4E0053455249414C5F4E0C
:10214000554D42455200000050495443485F5000ED
:1021500050495443485F490050495443485F440044
:10216000524F4C4C5F500000524F4C4C5F490000A6
:10217000524F4C4C5F4400005941575F50000000E3
:102180005941575F490000005941575F4400000022
:1021900050495443485F504F57455200524F4C4CA2
:1021A0005F504F57455200005941575F504F5745B8
:1021B0005200000050495443485F464F4C4C4F5723
:1021C00000000000524F4C4C5F464F4C4C4F5700A4
:1021D0005941575F464F4C4C4F57000050495443AC
:1021E000485F46494C54455200000000524F4C4C49
:1021F0005F46494C544552005941575F46494C543B
:10220000455200004759524F5F54525553540000F5
:102210004E504F4C45535F50495443480000000016
:102220004E504F4C45535F524F4C4C004E504F4C0C
:1022300045535F59415700004449525F4D4F544F39
:10224000525F5049544348004449525F4D4F544FE8
:10225000525F524F4C4C00004449525F4D4F544F17
:10226000525F5941570000004D4F544F525F465244
:1022700045510000524144494F5F545950450000B8
:102280004759524F5F4C504600000000545241568F
:10229000454C5F4D494E5F504954000054524156E1
:1022A000454C5F4D41585F504954000054524156CF
:1022B000454C5F4D494E5F524F4C4C005452415675
:1022C000454C5F4D41585F524F4C4C005452415663
:1022D000454C5F4D494E5F5941570000545241569D
:1022E000454C5F4D41585F594157000052435F5084
:1022F000495443485F4C50460000000052435F522F
:102300004F4C4C5F4C50460052435F5941575F4C15
:1023100050460000534255535F50495443485F4371
:1023200048414E00534255535F524F4C4C5F434817
:10233000414E0000534255535F5941575F43484156
:102340004E000000534255535F4D4F44455F434894
:10235000414E0000414343585F4F464653455400A9
:10236000414343595F4F4646534554004143435A06
:102370005F4F4646534554004759524F585F4F46AA
:1023800046534554000000004759524F595F4F468D
:1023900046534554000000004759524F5A5F4F467C
:1023A00046534554000000005553455F47505300C5
:1023B000534B49505F4759524F5F43414C4942008C
:1023C00052435F50495443485F5452494D00000006
:1023D00052435F524F4C4C5F5452494D0000000035
:1023E00052435F5941575F5452494D0052435F5029
:1023F000495443485F4D4F444500000052435F52EB
:102400004F4C4C5F4D4F44450000000052435F5914
:1024100041575F4D4F44450054494C545F57494E16
:10242000444F570050414E5F57494E444F570000AC
:10243000534255535F46554E435F4348414E00005B
:1024400052435F50495443485F5350454544000050
:1024500052435F524F4C4C5F53504545440000007F
:1024600052435F5941575F535045454400000000B7
:102470004A4F595F41584953000000005452494D9A
:102480005F484F5A000000005452494D5F54494C78
:10249000540000005452494D5F50414E000000006E
:1024A000534255535F5941575F53504545445F432D
:1024B00048414E00534255535F50495443485F537F
:1024C000504545445F4348414E000000000006432C
:1024D0000000E0420000F041000070410000E040D8
:1024E000000050410000104100008C420000A0425A
:1024F0000000B442486400208864F748C864F74884
:102500000865F74848658865C8654FF07E500866DD
:10251000486688660020C8664FF07E5008674867A6
:10252000F0488867F048C867F048C1F88000F04874
:10253000C1F88400EF48C1F88800EF48C1F88C006A
:102540004FF07E50C1F89000C1F89400C1F8980097
:102550004FF08040C1F89C00E848C1F8A00000207E
:10256000C1F8A400E648C1F8A8000020C1F8AC00FA
:10257000E448C1F8B000E448C1F8B400E348C1F849
:10258000B800E348C1F8BC00E248C1F8C0004FF011
:102590007E50C1F8C4000020C1F8C800DE48C1F870
:1025A000CC00C1F8D000C1F8D4000020C1F8D80098
:1025B000C1F8DC004FF07E50C1F8E000D048C1F80F
:1025C000E400C1F8E8004FF08140C1F8EC00D348C6
:1025D000C1F8F000C1F8F400C1F8F8000020C1F81B
:1025E000FC00CD48C1F80001C1F80401C1F80801A0
:1025F0004FF07E50C1F80C01C948C1F81001704776
:1026000038B5002404E0601CC64921F8140084B2E7
:10261000462CF8DB05F047FF00F06EFBFFF787FC68
:10262000002412E0BF4931F81400694600F036FB7F
:1026300030B9BDF9000007F0F3F9BB4941F82400B7
:102640002046FEF70AFC601C84B2462CEADBB74841
:1026500090F88100D8B90120B5494870B249D1F845
:10266000B80007F009FA00B2B2494882AE49D1F881
:10267000BC0007F001FA00B2AE498882AA49D1F83D
:10268000C00007F0F9F900B2AA49C88202E00020B0
:10269000A74948700020A449A1F8300238BD2DE9AF
:1026A000F04186B007460C46E0799A2870D006DCE7
:1026B000152809D017280FD099280CD14EE09D2855
:1026C00078D0A128F9D199E000209749A1F83002EB
:1026D000012099490870AFE0E846172204F108018B
:1026E000404606F015FF00BF0DF10606002532E05A
:1026F000924850F82510304606F02EFF48BB8A4A13
:1027000052F82500009907F05BFA22D0009820F0DB
:102710000041C1F1FF41C90FD9B900984FF07F4185
:10272000B1EB400F01D1012100E0002189B97E49C0
:10273000009841F82500009807F09EF91FFA80F8EC
:10274000784931F81500414600F045FC2846FEF76F
:1027500084FB681C85B2462DCADB6DE000BF0021FA
:10276000204600F01EF97649888600BF02212046E7
:1027700000F017F97249C88600BF0421204600F016
:1027800010F96F490887002081F8320054E0FFE714
:1027900000BF207A8DF814009DF81400D8B900BF4E
:1027A000607A634988710846807920B90120C87130
:1027B000087205E017E05E48C079401C5C49C871AA
:1027C0005B48C079072802DD07205949C8710020FD
:1027D0005C49088006E09DF81400012802D1002021
:1027E0005349487028E000BF207A012805D152489B
:1027F000008940F00100504908811DE000BF207AA7
:10280000514908600846007810F0010F03D00120FC
:102810004E49887607E04C48007810F0010F02D14D
:1028200000204A4988764848007810F0020F02D00C
:1028300000204649887500BF00BF06B0BDE8F081A2
:102840002DE9F041424806F0D1F9C0F16407414852
:1028500000683D1A002D00DA64350DB300240AE04B
:102860003C4800682618642E00DB643E3A48805DD0
:102870003A490855641CAC42F2DB36480760002434
:102880000CE03648015D364B364A0020FEF7DBF996
:1028900018B134490020FFF702FF641CAC42F0DBA2
:1028A0002846BDE8F081014601EB41002E4A02EBCB
:1028B000800070472DE9FC4105460E4617461C4630
:1028C000DDF8208000233A4631462846CDE900480D
:1028D00000F025F9BDE8FC810000F041000048430C
:1028E0000000C0410000B4C200007042000034C2C9
:1028F00000003442000034C3000034430000E040D4
:102900000000A0400000D04200400BC40000A8C15D
:10291000000028420000C8C10000C8420000A041D9
:1029200000004040EC080020AC0D0020500C0020BE
:10293000540D0020FC0C0020620D0020C40E00206D
:102940006C0D0020C000002030000020380D002059
:1029500058000240340000207C090020E0090020DB
:10296000E0060020D00500206001002070B505467B
:102970000C46E07800F10802A11C284606F0C8FDCC
:10298000E078083070BD00BF4FF6FF71018000BFD6
:10299000704770B504460D4621462846FEF742F9B9
:1029A00070BD024602F10800405E70472DE9F04F0D
:1029B0008BB005460E46144614AF97E8800FCDE95C
:1029C0000278CDF810A0CDF814B0199806901A9896
:1029D000ADF81C001B98ADF81E001C98ADF8200047
:1029E0001D98ADF822008DF824901E988DF82500D2
:1029F0001E2202A904F1080006F08AFD1820E071E9
:102A00001E233246294600902046FFF753FF0BB0A5
:102A1000BDE8F08F2DE9F04F8BB005460E46144609
:102A200014AF97E8800FCDE90278ADF81090ADF8BB
:102A300012A0ADF814B01998ADF816001A98ADF8B8
:102A400018001B98ADF81A001C98ADF81C001D98D2
:102A5000ADF81E001E98ADF820001A2202A904F15C
:102A6000080006F055FD1B20E07190201A23324625
:102A7000294600902046FFF71DFF0BB0BDE8F08F00
:102A80002DE9F04F8BB005460E4614461F46DDE992
:102A900016ABDDE91489ADF80870ADF80A80ADF821
:102AA0000C90ADF80EA0ADF810B01898ADF812006B
:102AB0001998ADF814001A98ADF816001B98ADF8E7
:102AC00018001C98ADF81A001D98ADF81C001E984F
:102AD000ADF81E001F98ADF820002098ADF8220038
:102AE0002198ADF824002298ADF826002398ADF87F
:102AF00028002498ADF82A00242202A904F1080035
:102B000006F006FD9820E0718620242332462946EF
:102B100000902046FFF7CEFE0BB0BDE8F08F2DE908
:102B2000FC5F04460F4690469946DDE90C5BFE20AB
:102B3000A070E570677184F806804846FFF7B3FE21
:102B4000807920714846FFF7AEFE8079401CC6B2FE
:102B50004846FFF7A8FE8671E61C05F1050A00BF8E
:102B60004FF6FF70009000BF04E016F8010B6946B5
:102B7000FEF758F85FEA0A00AAF101011FFA81FA8C
:102B8000F3D1BDF80000019001A95846FEF74AF8BC
:102B9000BDF80400C1B2E27804F108008154BDF828
:102BA00004000212E078401C04F108010A5405F107
:102BB0000800BDE8FC9F000010B50424F94805F0AA
:102BC000B7FC0446042C01D0204610BD0021F54876
:102BD00005F0B1FD0446042C01D02046F5E7F2488B
:102BE00005F0A6FC04462046EFE703460621062230
:102BF000EC480188EC480288A3B1012B1AD132B904
:102C0000A1F56E40EE3800D170470120FCE739B9DC
:102C1000A2F56E40EE3801D10120F5E70020F3E780
:102C2000AB20F1E709B90020EEE70AB90120EBE794
:102C3000AB20E9E70020E7E72DE9F04706468846A4
:102C400004270025D94CDFF868930120FFF7CDFF5A
:102C50000546AB2D01D1BDE8F087D24800EB8524B5
:102C6000681CD049891E01EB802913E02068401CB4
:102C70000FD14146204605F05EFD0746042F01D0E6
:102C80003846E8E73146A01C05F055FD07463846B2
:102C9000E1E7241D4C45E9D38020DCE72DE9F0472E
:102CA00006460F46002445F255584FF00109BF4D26
:102CB000AA460020FFF799FF0446AB2C01D1BDE8DE
:102CC000F087B84800EB842A601CB649891E01EBE6
:102CD00080250AE0B5F80080B04505D135F8020C32
:102CE00038804FF0000904E02D1F0AF102008542F0
:102CF000F0D800BF4846E2E72DE9F0474FF0060A5A
:102D0000062600250027A8464FF0FF39A548B0F851
:102D100000A0A54806885FEA0A0075D0A0F56E40BD
:102D2000EE382AD0A0F5885011386ED146B99D48AA
:102D300005F0FEFB0446042C1ED02046BDE8F087BB
:102D4000A6F56E40EE3810D1964805F0F1FB04462A
:102D5000042C01D02046F1E70021934805F0EBFC5C
:102D60000446042C08D02046E8E7FFF725FF044678
:102D7000042C01D02046E1E7AFE086BB002523E02C
:102D80008848801D00888B4931F81510884201D190
:102D90000FFA85F94D4515D0864931F81500864959
:102DA000FFF77CFF8046B8F1010F0BD0814931F865
:102DB000150081490988FFF73FFF0746042F01D01E
:102DC0003846BBE7681C85B2482DD9DB0021754821
:102DD00005F0B1FC0446042C02D02046AEE707E023
:102DE000714805F0A5FB0446042C1FD02046A5E73A
:102DF000A6F57F40FF3812D16B4805F099FB0446D9
:102E0000042C03D0204699E711E05EE000216548DC
:102E100005F091FC0446042C08D020468EE7FFF70D
:102E2000CBFE0446042C01D0204687E755E036B996
:102E3000FFF7C2FE0446042C46D020467EE7A6F5E6
:102E40007F40FF3807D1584805F072FB0446042C38
:102E50003AD0204672E7002523E05348801D0088C1
:102E6000544931F81510884201D10FFA85F94D45C2
:102E700015D0504931F815004F49FFF70FFF804634
:102E8000B8F1010F0BD04B4931F815004A490988B8
:102E9000FFF7D2FE0746042F01D038464EE7681CE4
:102EA00085B2482DD9DB00213F4805F044FC04469B
:102EB000042C01D0204641E73A4805F039FB04468E
:102EC000042C01D0204639E707E0FFF775FE0446E1
:102ED000042C01D0204631E700BF00BF04202DE7BD
:102EE0002DE9F84F074689460425DFF8D0A02F4882
:102EF00000904FF00008002400264FF0000B002047
:102F0000FFF773FE8046B8F1010F04D1DFF894A0FB
:102F1000254800900AE0B8F1000F04D1DFF888A03E
:102F20002048009002E0AB20BDE8F88F4EF6EE613D
:102F3000504605F000FC0546042D01D02846F3E775
:102F400049463846FFF778FE0646042E01D0304643
:102F5000EAE700241CE0174830F81400B84215D006
:102F6000144931F814001449FFF798FE8346BBF169
:102F7000010F0BD00F4931F814000F490988FFF7F2
:102F80005BFE0646042E01D03046CDE7601C84B2BD
:102F9000482CE0DB009805F0CBFA0546042D0FD055
:102FA0002846C1E700F8000800FC000800000108FE
:102FB000FF070108EC08002040000020FF03010883
:102FC0000021504605F0B7FB0546042D01D02846E8
:102FD000AAE72846A8E770B505460E460024314604
:102FE0002846FFF729FE0446802C04D131462846A6
:102FF000FFF776FF0446204670BD000010B501467D
:1030000000204FF0E0239A690B68934202D90B68C5
:10301000981A04E06FF07F440B682344981A10BD9F
:1030200000B59FB04FF0E02080691090FE48FFF798
:10303000E5FF0921B0FBF1F0FC4908604FF0E0200A
:103040008069F9490860F948006806F0F2FC0B90C5
:1030500006F05EFD0022F64BCDE90C0106F071FC96
:10306000CDE90E0106F090FD1290F24912988861A8
:10307000F148B0F90000F049B1F91210401A0A9075
:1030800006F0CEFC0B9006F043FD4FF06632EB4BA2
:10309000CDE90C0106F055FCCDE90E0106F074FDFA
:1030A0001C90E548B0F90200E349B1F91410401A48
:1030B0000A9006F0B5FC0B9006F02AFD4FF0663240
:1030C000DE4BCDE90C0106F03CFCCDE90E0106F02B
:1030D0005BFD1B90D848B0F90410B0F91600081A2F
:1030E0000A9006F09DFC0B9006F012FD4FF0663240
:1030F000D24BCDE90C0106F024FCCDE90E0106F01F
:1031000043FD1A90CB484068079006F001FDCC4A79
:10311000CC4BCDE9080106F0A2FB0022CA4BCDE959
:103120000A0106F00EFCCDE90C0107F037FBCDE9F2
:103130000E0106F029FD1990BE480068079006F0C0
:10314000E7FCBF4ABF4BCDE9080106F088FB00222F
:10315000BD4BCDE90A0106F0F4FBCDE90C0107F007
:10316000F1FBCDE90E0106F00FFD1890B148406863
:10317000079006F0CDFCB24AB24BCDE9080106F04B
:103180006EFB0022B04BCDE90A0106F0DAFBCDE977
:103190000C0107F059FBCDE90E0106F0F5FC179084
:1031A000A4480068079006F0B3FCA54AA54BCDE9FA
:1031B000080106F054FB0022A34BCDE90A0106F0FA
:1031C000C0FBCDE90C0107F0E9FACDE90E0106F0EC
:1031D000DBFC1690DDE9181006F024FA0D901A9920
:1031E00006F020FA0F90DDE9170106F01BFA0C90AB
:1031F0001B9906F017FA0D901C9906F0BBF90E907A
:103200000F9906F0B7F98B4908611A99179806F0DB
:1032100009FA0F901B99199806F004FA0E900F996D
:1032200006F0FAF98349C8601699199806F030FA41
:103230000D901A9906F0F6F90F90DDE9161006F0D8
:1032400027FA0D901B9906F0EDF90E900F9906F0F4
:1032500091F978494861084600690690129906F08C
:10326000E1F9079006F054FC784A794BCDE9080162
:1032700006F0F5FACDE90C016E484068099006F0B9
:1032800047FCCDE90A01DDE90C2306F041FACDE95E
:103290000E0106F079FC674948600846C068069050
:1032A000129906F0BFF9079006F032FC674A684BA6
:1032B000CDE9080106F0D3FACDE90C015D480068BC
:1032C000099006F025FCCDE90A01DDE90C2306F0A2
:1032D0001FFACDE90E0106F057FC56490860084672
:1032E00040690690129906F09DF9079006F010FCCF
:1032F000564A574BCDE9080106F0B1FACDE90C0169
:103300004C488068099006F003FCCDE90A01DDE92C
:103310000C2306F0FDF9CDE90E0106F035FC454918
:103320008860084640684B490F9006F053FC07D26E
:103330004048406848490F9006F06EF93D494860A2
:103340003C48406845490F9006F03AFC07D239489E
:10335000406841490F9006F00DF9364948603548FC
:1033600000683C490F9006F035FC07D231480068F0
:1033700039490F9006F050F92E4908602D48006831
:1033800036490F9006F01CFC07D22A4800683249E3
:103390000F9006F0EFF827490860264880682D490D
:1033A0000F9006F017FC07D2224880682A490F9038
:1033B00006F032F91F4988601E48806827490F903F
:1033C00006F0FEFB07D21B48806823490F9006F0E9
:1033D000D1F818498860224801680068401C204ADA
:1033E000106032297ED10020114608601248B0F9E1
:1033F00006001149B1F90C10401A0F9006F010FBAD
:1034000015900D48B0F908000B49B1F90E10401A9B
:103410000F9006F005FB14900748B0F90A10B0F9B8
:103420001000081A0F901DE06400002060000020CA
:1034300000408F40180D0020FC0C002066664040C4
:103440006E861BF0F921094000806640FCA9F1D28C
:103450004D62503F000034430000B443000034C3C9
:10346000AC00002006F0DCFA13901499084606F030
:10347000D9F808901399084606F0D4F807900899EF
:1034800006F078F8099006F043FBCDE90A0107F051
:1034900033FACDE90C0106F077FB0F90159880F018
:1034A00000400E900F9902F05FFC80F000401D90EC
:1034B0000021139806F08EFB38D2159806F028FBF1
:1034C000CDE90401159806F023FB734A734BCDE94F
:1034D000000106F0C4F9CDE90201DDE9042306F09C
:1034E000BEF900E0CCE0CDE908011399084606F0EA
:1034F00099F8059006F00CFBCDE90601DDE90823FB
:1035000006F006F9CDE90A0107F0F6F981F000416D
:10351000CDE90C0106F038FB0F90149880F00040C4
:103520000E900F9902F020FC1E9033E0159806F0E3
:10353000EFFACDE90401159806F0EAFA564A574B1E
:10354000CDE9000106F08BF9CDE90201DDE90423A4
:1035500006F085F9CDE908011399084606F062F8EE
:10356000059006F0D5FACDE90601DDE9082306F05D
:10357000CFF8CDE90A0107F0BFF9CDE90C0106F05B
:1035800003FB0F90149880F000400E900F9902F00A
:10359000EBFB1E901399084606F044F80890149926
:1035A000084606F03FF806901599084606F03AF8E6
:1035B0000590069905F0DEFF0790089905F0DAFFFF
:1035C000099006F0A5FACDE90A0107F095F9002265
:1035D000334BCDE90C0106F0B4F9CDE90E0106F04C
:1035E000D3FA11904FF07E51119806F015F80C9017
:1035F00002F028FC0D9006F08BFA2A4A2A4BCDE9FE
:103600000E0106F099FA3BD22848007F012837D1F5
:103610002748406B01460C904FF07E5005F0FCFFB0
:103620000D901E9905F0FEFF0F90204840680D9008
:103630001F48406B0C900D9905F0F4FF0E900F9908
:1036400005F098FF194948601948406B01460C90F5
:103650004FF07E5005F0E0FF0D901D9905F0E2FF60
:103660000F90124800680D901148406B0C900D9916
:1036700005F0D8FF0E900F9905F07CFF0B4908600C
:103680004FF0E02081691098401A0921B0FBF1F059
:10369000084908601FB000BD7B14AE47E17A843F43
:1036A0000046B0409A9999999999C93F180D002000
:1036B000500C0020A8000020C0F57A72B54B1A808B
:1036C000C1F57A72B44B1A8070472DE9F04F87B07C
:1036D00082460021504606F07DFA06D80020AF4908
:1036E00008700846C0F804A005E00120AB49087046
:1036F0008AF000404860AA4AD168A84A506805F09C
:103700008BFFA64988600A469168106905F032FF70
:10371000A24908610A46D168906805F07DFF9F497B
:103720004861A04AD1689D4A506905F07BFF064672
:1037300006F0EEF9044600229B4B06F002F9994A86
:10374000CDE902019168954A106905F06BFF834647
:1037500006F0DEF980460022934B06F0F2F80446AC
:103760000D46904A51688D4A906805F05BFF80468F
:1037700006F0CEF9064622462B4605F0C9FFCDE9F4
:103780000001DDE9022305F0C3FFCDE9040106F0E5
:10379000FBF9824988618869844906F01BFA09D2DD
:1037A0007E4A9168106905F037FF7C4908617F48BF
:1037B00088610DE079498869002106F001FA03D299
:1037C00000207649886103E0744880687349C860C6
:1037D0007248007848B97149886906F04DF9044685
:1037E00021460020FFF768FF07E06C49886906F072
:1037F00043F904460021FFF75FFF07B0BDE8F08FF3
:103800002DE9F04105460C46284606F009F9074621
:10381000674905F004FF064606F047F95E49091FAF
:103820000880204606F0FCF80746614905F0F7FEDF
:10383000064606F03AF95749091F0880BDE8F081AD
:103840002DE9F04F87B082460021504606F0C2F9BC
:1038500006D80020574908700846C0F804A005E0C3
:103860000120544908708AF000404860524AD168EB
:10387000504A506805F0D0FE4E4988600A4691686B
:10388000106905F077FE4B4908610A46D1689068D7
:1038900005F0C2FE4749486108468068C860414A51
:1038A000516A444A506905F0BDFE064606F030F9FB
:1038B000044600223C4B06F044F83A4ACDE90201A6
:1038C000116A3C4A106905F0ADFE834606F020F906
:1038D00080460022344B06F034F804460D46314A47
:1038E000D169344A906805F09DFE804606F010F9D3
:1038F000064622462B4605F00BFFCDE90001DDE927
:10390000022305F005FFCDE9040106F03DF9294940
:1039100088618869254906F05DF90AD2234825495E
:1039200088610A469168106905F076FE21490861B0
:1039300008E020498869002106F042F902D20020FF
:103940001C4988611B48007848B91A49886906F003
:1039500093F8044621460020FFF752FF07E015497F
:10396000886906F089F804460021FFF749FF07B08F
:10397000BDE8F08F10B504462CB1012220210F487C
:1039800003F059FD04E0002220210C4803F053FD10
:1039900010BD0000400800403C0400408C10002096
:1039A0003C100020500C002000408F40000061447B
:1039B00000007A44AC100020EC0F00200008014009
:1039C00010B5FC4801680068401CFA4A1060A1F577
:1039D0003060B83858D1F848006840F6B83190FBEC
:1039E000F1F000B2F5494882F548006840F6B83178
:1039F00090FBF1F000B2F1498882F248006840F68D
:103A0000B83190FBF1F000B2EC49C88200201146B9
:103A10000860EA4A528A91B2EB4AB2F85C00FFF7BA
:103A2000DAFAE64A928A91B2E74AB2F85E00FFF704
:103A3000D2FAE24AD28A91B2E34AB2F86000FFF7C2
:103A4000CAFADE49B1F9120005F0EAFFDF49C1F810
:103A5000B800DA49B1F9140005F0E2FFDB49C1F81A
:103A6000BC00D649B1F9160005F0DAFFD749C1F814
:103A7000C0000120D64948700020CF490860D049D5
:103A80000860D04908601DE0CA48006840F6B831B7
:103A9000884217DAC948B0F90000C74909680844E4
:103AA000C5490860C548B0F90200C549096808441D
:103AB000C3490860C148B0F90400C2490968084414
:103AC000C0490860012010BD2DE9F047C1480188B8
:103AD0000088401CBF4A1080A1F53060B8387DD105
:103AE000BB48C079062836DCBB48006840F6B831D0
:103AF00090FBF1F000B2B649C979B84A42F821000A
:103B0000B748006840F6B83190FBF1F000B2B04918
:103B1000C979B44A42F82100B348006840F6B83188
:103B200090FBF1F000B2AA49C979B04A42F82100ED
:103B30000020A9490860AA490860AB490860A44868
:103B4000007A401CA24908720846007A072801DD65
:103B500007200872CBE0002500260027A846A946CA
:103B6000AA46002400BF4FE09C4850F82400B0F55E
:103B70007A7F0FDA994850F8240010F57A7F09DD32
:103B8000964850F8240028B1681CC5B2934850F8F4
:103B900024008044934850F82400B0F57A7F0FDA6F
:103BA000904850F8240010F57A7F09DD8D4850F8D0
:103BB000240028B1701CC6B28A4850F82400814401
:103BC0008A4850F82400B0F57A7F11DA874850F817
:103BD000240010F57A7F0BDD844800E069E050F89E
:103BE000240028B1781CC7B2804850F824008244D1
:103BF00000207A4941F824007A4941F824007B49A1
:103C000041F82400601CC4B2062CADDD2DB198FB38
:103C1000F5F000B26949888102E000206749888197
:103C20002EB199FBF6F000B26449C88102E0002091
:103C30006249C8812FB19AFBF7F000B25F49088250
:103C400002E000205D4908825C4A928991B25E4A96
:103C5000B2F85600FFF7BFF9584AD28991B25A4AD2
:103C6000B2F85800FFF7B7F9544A128A91B2564A8F
:103C7000B2F85A00FFF7AFF95049B1F90C0005F05E
:103C8000CFFE5249C1F8AC004C49B1F90E0005F025
:103C9000C7FE4E49C1F8B0004849B1F9100005F01F
:103CA000BFFE4A49C1F8B40000204949C8710872F2
:103CB0001DE04848008840F6B831884217DA3F488E
:103CC000B0F90600444909680844434908603B4884
:103CD000B0F908004249096808444149086037487A
:103CE000B0F90A004049096808443F4908600020CB
:103CF000BDE8F08770B5374801880088401C354A18
:103D00001080A1F53060B83873D13348006840F6B0
:103D1000B83190FBF1F004B23148006890FBF1F04B
:103D200005B23148006890FBF1F000F5805006B212
:103D300000201146088021488481C5810682024600
:103D4000928991B2204AB2F85600FFF744F91B4A13
:103D5000D28991B21C4AB2F85800FFF73CF9174AD1
:103D6000128A91B2184AB2F85A00FFF734F913498F
:103D7000B1F90C0005F054FE1449C1F8AC000F492C
:103D8000B1F90E0005F04CFE1049C1F8B0000B4926
:103D9000B1F9100005F044FE0C49C1F8B400002050
:103DA0000B49C87108720C4908600D4908600E493A
:103DB000086036E0B0000020B4000020FC0C0020B9
:103DC000B8000020BC000020EC080020AC0D002052
:103DD000540D0020C0000020C4000020CC100020A2
:103DE000C8000020E8100020CC00002004110020B2
:103DF000FFE71448B0F9060013490968084412495E
:103E000008601048B0F908001049096808440F49D3
:103E100008600C48B0F90A000D49096808440C49CB
:103E20000860002070BD10B50A48807910B9FFF70E
:103E300061FF05E007488079012801D1FFF744FEC2
:103E4000002010BDFC0C0020C4000020C800002091
:103E5000CC000020540D00209548007E10F0040F87
:103E600008D09448007B10B96520924908734FF040
:103E7000FF3070478E484088C0F30A00C0F580606C
:103E80008C49C8818A48B0F80300C0F3CA00C0F565
:103E90008061884801828648D0F80300C0F38A30E8
:103EA000C0F58061834841828148C088C0F34A00E0
:103EB000C0F580617F4881827D48B0F80700C0F37B
:103EC0000A10C0F580617B48C1827948D0F80700AC
:103ED000C0F3CA30C0F580617648018374484089D8
:103EE000C0F38A00C0F58061724841837048B0F821
:103EF0000B004FF48061A1EB50116E4881836C4838
:103F0000B0F80D00C0F30A00C0F580616948C183B4
:103F10006748C089C0F3CA00C0F580616548018464
:103F20006348D0F80E00C0F38A30C0F58061614864
:103F300041845F48B0F81100C0F34A00C0F58061C9
:103F40005C4881845A48408AC0F30A10C0F58061F9
:103F50005848C1845648D0F81200C0F3CA30C0F5A2
:103F60008061544801855248B0F81500C0F38A00BA
:103F7000C0F580614F4841854D48C08A4FF480614B
:103F8000A1EB50114B4881854948007E10F0010F8C
:103F900002D04FF4487100E047494648C185444883
:103FA000007E10F0020F02D04FF4487100E0424949
:103FB0004048018600203F4908734048008940F08E
:103FC00020003E490881012053E700B502463848E9
:103FD000007820B101280AD0022820D117E00F2A4A
:103FE00004D10120324908700020487017E03048A1
:103FF00041784078401C2E4B5870981C4254801ECB
:104000004078172802D102201946087007E00020E6
:104010002749087012B9FFF71FFF00BD00BF00BF9E
:104020000020FAE700B587B04FF40060ADF8040057
:1040300004208DF8070001A9214803F04DF919214A
:104040001B4805F07EFA03A802F08EFF1D4803907E
:104050000020ADF810004FF40050ADF81200C01071
:10406000ADF814000020ADF818000420ADF81600DB
:1040700003A9154802F00FFF012240F22551124812
:1040800002F0A1FF0121104802F091FF27208DF8D6
:10409000080003208DF8090000208DF80A00012097
:1040A0008DF80B0002A803F068FA07B000BD00000D
:1040B000000000206C0D0020E0FCFFFF620D0020DE
:1040C000000C0140A08601000048004010B54FF4EC
:1040D0008051B94803F0ADF910BD10B54FF48051CF
:1040E000B54803F0A4F910BD00B589B001218803DB
:1040F00002F033FE4FF40050ADF8200018208DF888
:10410000230003208DF8220008A9AB4803F0E4F84F
:104110004FF40040ADF8200008A9A74803F0DCF8F0
:104120004FF48040ADF8200004208DF8230008A94A
:10413000A14803F0D1F84FF48050ADF820001020D2
:104140008DF8230002208DF8220008A99A4803F078
:10415000C3F80020ADF80C004FF48270ADF80E00EB
:104160000020ADF810000220ADF812000120ADF8DB
:1041700014004002ADF816001820ADF81800002019
:10418000ADF81A000720ADF81C0003A98B4804F015
:1041900025FE0121894804F0C6FE4FF48060ADF889
:1041A000200048208DF8230002208DF8220008A965
:1041B000814803F091F80A21012003F0A1F90020C1
:1041C0008DF8080008208DF80900C0010190012039
:1041D0008DF80A0001A804F05BFD28208DF800008E
:1041E00000208DF801008DF8020001208DF80300F9
:1041F000684603F0C2F909B000BD10B50446214677
:104200006E4804F0C1FE00BF01216C4804F00FFFAE
:104210000028F9D0694804F0B9FEC0B210BD70B5ED
:1042200005460C46FFF752FF2846FFF7E6FF2046FB
:10423000FFF7E3FFFFF751FF70BD10B5FFF754FF25
:104240000A20FBF7B5FF4FF480515B4803F0EFF80D
:104250000A20FBF7ADFF80216B20FFF7E0FF0A206B
:10426000FBF7A6FF03216B20FFF7D9FF0A20FBF71E
:104270009FFF10216A20FFF7D2FF0A20FBF798FF6B
:1042800007211920FFF7CBFF0A20FBF791FF03213D
:104290006B20FFF7C4FF0A20FBF78AFF00211A20DA
:1042A000FFF7BDFF0A20FBF783FF10211B20FFF75C
:1042B000B6FF0A20FBF77CFF10211C20FFF7AFFFA1
:1042C0000A20FBF775FF01213820FFF7A8FF0A201D
:1042D000FBF76EFF10213720FFF7A1FF0A20FBF745
:1042E00067FF10BD70B50446FFF7F0FE44F0800094
:1042F000FFF783FF0020FFF780FF0546FFF7EDFE85
:10430000284670BD01202E490870704770B5002006
:10431000FFF773FF04460020FFF76FFF054645EAED
:10432000042000B270BD10B525480078012835D1B1
:104330000024002022490870012022490876FFF756
:10434000C5FEBB242046FFF758FFFFF7DFFF4042C2
:1043500000B21D490880FFF7D9FF404200B21B4957
:104360000880FFF7D3FF404200B219490880FFF7E9
:10437000CDFFFFF7CBFF404200B216490880FFF7A0
:10438000C5FF404200B214490880FFF7BFFF40421A
:1043900000B212490880FFF7A0FE00BF002010BD48
:1043A0000F4801880088401C0D4A1080642901DDF7
:1043B000022070470120FCE7000C0140003800405B
:1043C00020110020FC0C0020580000205600002086
:1043D0005A0000205200002050000020540000200D
:1043E000D0000020704700B593B0FE4890F86910E7
:1043F000FD4830F81100FB49B1F88210401A00B2B4
:104400000F90F84890F86B10F74830F81100F54914
:10441000B1F88610401A00B20E90F448007B10B13B
:104420000020F24908730F98322804DD0F983238C3
:1044300000B20F900AE00F9810F1320F04DA0F98D3
:10444000323000B20F9001E000200F900E98322819
:1044500004DD0E98323800B20E900AE00E9810F18A
:10446000320F04DA0E98323000B20E9001E00020D4
:104470000E90DD480E38007B401CDB490E39087376
:10448000D84890F86600401C0B9005F0C9FA0D90D2
:104490000F9805F0C5FA0B90D24890F86600089086
:1044A00005F0C7FA0990D0480E3800680146089018
:1044B000099805F0B7F80A900B9905F05BF80C9095
:1044C0000D9905F0E5F8C8490E390860C54890F81F
:1044D0006800401C0B9005F0A3FA0D900E9805F0B3
:1044E0009FFA0B90BF4890F86800089005F0A1FA79
:1044F0000990BD480E38406801460890099805F0BB
:1045000091F80A900B9905F035F80C900D9905F08B
:10451000BFF8B5490E394860B24890F86C10B248FF
:1045200030F911000D9005F07BFAAF490E39886023
:1045300008468068AE490D9005F04CFB0CD2AA48A5
:104540000E388068AB490D9005F03AFB04D2AA48BA
:104550008068AA49086015E0A74880680890A748C5
:104560000168089805F058F8099005F0D1FA002282
:10457000A34BCDE90A0105F072F9CDE90C0105F074
:1045800003FB119098480E38006800210D9005F04B
:1045900021FB1BD294480E380068089092480E38D0
:1045A00000680790089905F03DF8099005F0B0FA09
:1045B0000022944BCDE90A0105F0C3F9CDE90C01C5
:1045C00005F0E2FA88490E3908601DE086480E3889
:1045D000006880F00040089083480E38006801466B
:1045E0000790089805F01EF8099005F091FA00224E
:1045F000844BCDE90A0105F0A4F9CDE90C0105F0E1
:10460000C3FA79490E39086077480E3880687849CE
:104610000D9005F0D5FA7DD27B480068002843D084
:104620001098012801D1002010907748006805F00B
:1046300005FA00224FF08043CDE9060105F081F92B
:10464000CDE90A0168480E380068079005F060FA65
:10465000CDE90801DDE90A2305F0FBF8CDE90C01FD
:1046600005F092FA694908606748006805F0E6F9C4
:1046700000224FF08043CDE9060105F062F9CDE953
:104680000A0159480E380068079005F041FACDE953
:104690000801DDE90A2305F03BF8CDE90C0105F03E
:1046A00073FA5B49086087E1109828B901201090DF
:1046B00051488068514908604F48806808904F48C9
:1046C0000168089804F0A8FF099005F021FA00227B
:1046D0004B4BCDE90A0105F0C2F8CDE90C0105F01C
:1046E00053FA119040480E3800680490119904F074
:1046F00093FF059005F00CFA0022464BCDE9060128
:1047000005F0ADF8CDE90A014348C068029043487E
:10471000C06800E084E00190029904F0B9FF0390C2
:1047200005F0F6F9CDE906012F480E380068019032
:1047300005F0EEF90022374BCDE9020105F08FF8C4
:10474000CDE90401DDE9062305F089F8CDE908018A
:10475000DDE90A2304F0DCFFCDE90C0105F014FAD1
:104760002A49086020480E3800680490119904F026
:1047700001FF059005F0CCF90022264BCDE906019A
:1047800005F06DF8CDE90A012448C068029022487E
:10479000C0680190029904F07BFF039005F0B8F91E
:1047A000CDE9060110480E380068019005F0B0F917
:1047B0000022184BCDE9020105F051F8CDE90401C2
:1047C000DDE9062305F04BF8CDE90801DDE90A2310
:1047D00004F09EFFCDE90C0105F0D6F90C49086004
:1047E000EAE00000500C00207A0D0020540D00205B
:1047F0000000C8C20000C842180D002008010020B7
:104800000000F83F0070974028010020A000002021
:10481000A40000200000E03F3C100020EC0F00202E
:10482000FB488068FB490D9005F0D4F97DD2F8482B
:10483000006800210D9005F0CDF95AD2F448406887
:1048400000210D9005F0C6F929D2F1480068F2491F
:104850000860EF4840680490ED4840680390049970
:1048600004F0E0FE059005F053F90022EB4BCDE992
:10487000060105F066F8CDE90A01E54800680790F1
:1048800005F046F9CDE90801DDE90A2304F0E1FF6E
:10489000CDE90C0105F078F9E14908608CE0DC48CD
:1048A00040680490DA4840680390049904F0BAFE26
:1048B000059005F02DF90022D84BCDE9060105F051
:1048C00040F8CDE90A01D2480068079005F020F9C8
:1048D000CDE90801DDE90A2304F0BBFFCDE90C01B5
:1048E00005F052F9CC490860C9480068CC49086015
:1048F00062E0C748406800210D9005F06BF92BD2AB
:10490000C3480068C4490860C14840680490C04872
:1049100040680390049904F085FE059005F0F8F8CE
:104920000022BE4BCDE9060100E03FE005F009F8AA
:10493000CDE90A01B6480068079005F0E9F8CDE92D
:104940000801DDE90A2304F0E3FECDE90C0105F0DE
:104950001BF9B34908602FE0AD4840680490AC48AB
:1049600040680390049904F05DFE059005F0D0F8CE
:104970000022AA4BCDE9060104F0E3FFCDE90A01CC
:10498000A3480068079005F0C3F8CDE90801DDE908
:104990000A2304F0BDFECDE90C0105F0F5F89E49AF
:1049A00008609B4800689E49086005E000219A481D
:1049B000016000209A49086013B000BD704770473D
:1049C0002DE9F04F87B09249B1F9380005F028F889
:1049D00083469448016B584604F024FE824605F055
:1049E00097F807460022904B04F039FF054605F082
:1049F00070F80FFA80F98649B1F9340005F010F823
:104A000083468848816A584604F00CFE824605F0C9
:104A10007FF807460022844B04F021FF054605F08D
:104A200058F804B27F4890F88A0000283BD1002C47
:104A30001CDDB9F1000F0CDDA4EB090004F0F0FF60
:104A40007549086004EB090004F0EAFF7449086046
:104A500035E2A4EB090004F0E3FF6F49086004EBC2
:104A6000090004F0DDFF6E490860F1E7B9F1000FBD
:104A70000CDD04EB090004F0D3FF67490860A4EBE8
:104A8000090004F0CDFF66490860E1E704EB090086
:104A900004F0C6FF60490860A4EB090004F0C0FF01
:104AA0005F490860D4E76148007B28B10120604974
:104AB000086000205D4908735A49886A04F0DCFFE9
:104AC00004B25C480068C8B159480068012815D193
:104AD00059490860594801680068401C574A1060ED
:104AE00050292CDD4FF0FF30514908600020544917
:104AF0000870544908705449087020E05348006811
:104B0000C0B14B480068401C14D101204A490860DC
:104B10004A4801680068401C484A106050290EDD70
:104B200000204349086046490870464908704649D4
:104B3000087004E0002040490860404908603C4893
:104B40000068012808D1424800684249086042488C
:104B50000068424908600BE035480068401C07D1F6
:104B60003D4800683B490860394800683B49086097
:104B70003148006800284AD13648006800287DD0B6
:104B80003448006840287ADD2D480078042877DA18
:104B90002D48007890BB01202B49087030484068B0
:104BA0003049884203DD00202D49486007E02E4847
:104BB00040682C49884202DD00202B494860284883
:104BC000406828494942884203DA00202449486065
:104BD00008E02548406823494942884202DA00201B
:104BE000214948601E484068204908601E484068C6
:104BF0001F4908601F4880681F4908600C4800680A
:104C0000012877D10F480078052874D239E0B3E342
:104C10006C0D00200000C842A00000200000594098
:104C2000A4000020500C002000002040540D002063
:104C3000F400002030010020F800002004010020D2
:104C4000E9000020F0000020E800002034010020EE
:104C500028010020FC0000202C0100200001002081
:104C60003C10002000943577EC0F0020E00000207D
:104C7000E4000020180D0020EC000020D8E26CE2D7
:104C800065E2DFE800F0033D709DD000F748406822
:104C9000F7490968401A10F5967F10DAF548406820
:104CA000F5490968401AB0F5967F08DDF3480078A9
:104CB000401CF24908700120F14908701FE0EB48E0
:104CC0004068EB490968401A10F5967F03DDED480E
:104CD000ED49086002E00020EB490860E5484068C3
:104CE000E5490968401AB0F5967F05DAE748E849D2
:104CF000086004E0E4E0E1E00020E5490860DEE06F
:104D0000DA484068DA490968401AB0F5967F0BDD49
:104D1000D8484068D8490968401A10F5967F03DAE8
:104D20000220D74908701DE0D0484068D049096882
:104D3000401AB0F5967F03DAD448D349086002E000
:104D40000020D1490860CB484068CB490968401A27
:104D500010F5967F03DDCB48CD49086002E00020C6
:104D6000CB490860ABE0C1484068C1490968401AB6
:104D70000AD5C0484068C0490968401A002803DDC8
:104D80000320BF4908701AE0B8484068B84909686C
:104D9000401A002803DDBB48BB49086002E0002040
:104DA000B9490860B3484068B3490968401A03D557
:104DB000B648B749086002E00020B54908607EE0C7
:104DC000AA484068AA490968401AB0F57A7F0BDD05
:104DD000A8484068A8490968401AB0F57A7F03DD01
:104DE0000420A74908701DE0A0484068A049096850
:104DF000401AB0F57A7F03DAA448A349086002E0BC
:104E00000020A14908609B4840689B490968401AF6
:104E1000B0F57A7F03DA9D489D49086002E00020E2
:104E20009B4908604BE09B4881689B48006804F000
:104E3000F3FB0546994904F0CDFE10D2654205EB1F
:104E4000D571481004F0ECFD8F490860254604EB4D
:104E5000D571481004F0E4FD8D4908602DE08D48BF
:104E600081688D48006804F0D7FB05468C4904F042
:104E7000A7FE10D2254604EBD571481004F0D0FDF2
:104E800081490860654205EBD571481004F0C8FD02
:104E90007F49086011E00020824908707849087055
:104EA00072484068724908607248406872490860F8
:104EB0000020754908607649086000E000BF60E2A4
:104EC00079480068401CFAD16D48007805286FD2F7
:104ED000DFE800F0033B6F9CF000644840686449E1
:104EE0000968401AB0F5967F10DD62484068624953
:104EF0000968401A10F5967F08DA60480078401C6F
:104F00005E49087001205E4908701DE057484068FE
:104F100057490968401AB0F5967F03DA5B485A4949
:104F2000086002E000205849086052484068524931
:104F30000968401A10F5967F03DD5248544908600D
:104F400002E000205249086000E1484840684849B2
:104F50000968401A10F5967F0BDA464840684649C2
:104F60000968401AB0F5967F03DD022044490870B5
:104F70001DE03E4840683E490968401A10F5967F9A
:104F800003DD40484049086002E000203E490860D7
:104F90003848406838490968401AB0F5967F03DA06
:104FA0003A483B49086002E0002039490860CDE0FA
:104FB000CBE02E4840682E490968401A002809DDD8
:104FC0002C4840682C490968401A03D503202C4915
:104FD00008701AE02548406825490968401A03D539
:104FE0002A482949086002E0002027490860214832
:104FF000406821490968401A002803DD21482449F6
:10500000086002E00020224908609FE017484068DD
:1050100017490968401A10F57A7F0BDA154840687D
:1050200015490968401A10F57A7F03DA04201449FB
:1050300008703EE00D4840680D490968401A10F5B7
:105040007A7F03DD0F481049086002E000200E4916
:1050500008600848406808490968401A10F57A7FD6
:1050600024DD08480A49086023E023E03C100020C2
:10507000E0000020EC0F0020E4000020E900002008
:10508000F00000200000A0C1A00000200000A0410E
:10509000A4000020180D0020EC000020000040407B
:1050A000000040C0E8000020F40000200020CA49B1
:1050B00008604BE0C9488168C948006804F0ACFA50
:1050C0000546C84904F086FD10D2654205EBD5714E
:1050D000481004F0A5FCC4490860254604EBD571CE
:1050E000481004F09DFCBC4908602DE0BB48816875
:1050F000BB48006804F090FA0546BC4904F060FD26
:1051000010D2254604EBD571481004F089FCB6494D
:105110000860654205EBD571481004F081FCAE498A
:10512000086011E00020B2490870B2490870B24826
:105130004068B2490860B2484068B249086000203F
:10514000A9490860A449086000E000BF19E10020F7
:10515000A5490860A049086013E10020AA49087029
:10516000A4490870A2490870A8484FF07E5106680B
:10517000006804F051FAA549354608600021284628
:1051800004F01EFD02D20020A0490860A04800786B
:10519000012802D100209E4908709E48006804F052
:1051A0004DFC074688469C48006804F047FC0022F6
:1051B0009A4BCDE9000104F0C4FBCDE90201204681
:1051C00004F03CFC8246DDE9022304F042FB3A464F
:1051D0004346CDE9040104F042FB054604F0D4FC4B
:1051E000814908608B48006804F028FCCDE904017F
:1051F0008948006804F022FC0022884BCDE90001B8
:1052000004F09FFB05460E46204604F017FC82463C
:105210002A46334604F07CFACDE90201DDE9042395
:1052200004F01DFB074604F0AFFC6B490860A8E0E2
:1052300000207549087075484FF07E510668006877
:1052400004F098F97149354608607549284604F01C
:10525000C1FC02D272486D4908606D48007830B9CF
:1052600001206B4908705D4880686E4908605B49A1
:1052700088686C49096804F0CFF96B490860654893
:10528000006804F0CDFB69490590886A684904F01C
:10529000C9F9834664480168584604F0BDF9804660
:1052A0005A4801685E4804F0B7F983465C4904F047
:1052B000EFF98246414604F0B5F90646584953488D
:1052C000006804F0E5F904905848816A049804F0F5
:1052D000A9F98346564904F0A5F982464848C168B1
:1052E000504604F09FF980464348C168404604F0A8
:1052F000CFF90746314604F03DF90546059904F01B
:1053000091F9394908604348006804F089FB47492E
:105310000590886A464904F085F983464248016849
:10532000584604F027F98046384801683C4804F0A4
:1053300073F983463A4904F0ABF98246414604F0DA
:1053400071F906463949886A394904F06BF9804693
:1053500033492E48006804F09BF98246414604F028
:1053600061F90746314604F005F90546059904F050
:1053700059F91949086004E000201B4908601649E2
:10538000086007B0BDE8F08F704710B5274890F867
:10539000510070B92748017B007B401C254A1073DF
:1053A000642906DAFFF71FF80120224981F83D0041
:1053B00011E01E4890F85100012806D1FFF700FBCC
:1053C00001201C4981F83D0005E06420194908735B
:1053D000002081F83D0010BDA4000020180D002021
:1053E000EC00002000004040A0000020000040C071
:1053F000E8000020F00000203C100020E000002029
:10540000EC0F0020E4000020E9000020DC00002078
:10541000D4000020F4000020FC0000200000F83F31
:1054200000401C4608010020D8000020500C00203D
:105430000000FA436C0D002008B54FF48040ADF831
:10544000000002208DF8020010208DF8030069464C
:10545000FE4801F041FF4FF40040ADF800006946FE
:10546000FA4801F039FF08BD1FB54FF48050ADF880
:105470000C0002208DF80E0048208DF80F0003A9C3
:10548000F24801F029FF4FF40060ADF80C0003A9C9
:10549000EE4801F021FF1020ADF80C0003A9EC4804
:1054A00001F01AFF2020ADF80C0003A9E84801F034
:1054B00013FF0421002002F023F828208DF80000BB
:1054C00006208DF8010000208DF8020001208DF8E3
:1054D0000300684602F051F800208DF80800102003
:1054E0008DF80900019001208DF80A0001A803F051
:1054F000CFFB0521002002F003F828208DF80000E2
:1055000005208DF8010000208DF8020001208DF8A3
:105510000300684602F031F800208DF808001020E2
:105520008DF809002020019001208DF80A0001A8C3
:1055300003F0AEFB0E21022001F0E2FF0F2102205A
:1055400001F0DEFF0A208DF8000000208DF8010038
:105550008DF8020001208DF80300684602F00DF876
:1055600000208DF8080010208DF80900019001201E
:105570008DF80A0001A803F08BFB00208DF80800CD
:1055800010208DF809002020019001208DF80A00DC
:1055900001A803F07DFB1FBD0EB50121AD4801F050
:1055A0006AFF4FF40050ADF8080002208DF80A00A1
:1055B00048208DF80B0002A9A44801F08DFE0D21B2
:1055C000002001F09DFF4FF40050009008208DF85E
:1055D000050000208DF8040001208DF806006846C3
:1055E00003F056FB0EBD1FB50121082001F0A8FBFA
:1055F0000121084601F0B1FBC020ADF80C004820A5
:105600008DF80F0001208DF80E0003A9904801F0DD
:1056100063FE4FF4A070ADF80C0028208DF80F0049
:1056200003A98A4801F058FE0721012001F068FF14
:105630000621012001F064FF8020019008208DF8F0
:10564000090000208DF8080001208DF80A0001A84B
:1056500003F01EFB17208DF8000001208DF80100DB
:1056600006208DF8020001208DF80300684601F045
:1056700084FF4020019008208DF8090000208DF85B
:10568000080001208DF80A0001A803F001FB172093
:105690008DF8000001208DF8010007208DF8020030
:1056A00001208DF80300684601F067FF1FBD2DE95A
:1056B000F04104460D466006060E67480088401C0F
:1056C0006549088008460088A84229DD0020088036
:1056D00062480088401C614908800846018806F13C
:1056E0000A00814203DD00205C49088018E05B4825
:1056F0000088B04206DD00224FF48041534801F09B
:105700009AFE0DE04FF48041504801F083FEC0F155
:105710000100C7B23A464FF480414C4801F08BFE7D
:10572000BDE8F08170B504464D480088401C4C49E6
:10573000088008460088A0420FDD002008804FF452
:105740008041424801F066FEC0F10100C5B22A4620
:105750004FF480413D4801F06EFE70BD10B5044627
:1057600014F0080F03D06420FFF7DCFF1DE014F0F5
:10577000040F03D00120FFF7D5FF16E014F0020F4D
:1057800005D04FF496710120FFF791FF0DE014F062
:10579000010F05D04FF496710320FFF788FF04E056
:1057A0004FF496710220FFF782FF10BD10B504463A
:1057B00022464FF40041254801F03DFE10BD10B5D2
:1057C0002848807910B10020264988714FF4005193
:1057D0001E4801F012FE28B922480078401C2149D9
:1057E000087003E000201F49487108701D480078C8
:1057F000322815DD1B48007920B90020194948706E
:10580000012008710020174948803220087008469E
:10581000407928B90120487108464078401C4870FA
:1058200010480079012810D10E484088401C0D49CD
:10583000488008464088B0F57A7F06DD0020087170
:10584000084640788871002048800DE0000801403B
:10585000000C0140000430000C0100200E0100206B
:1058600010010020120100200D48807910BD0D4864
:1058700080680921B0FBF1F070470B48806809216E
:10588000B0FBF1F07047094880680921B0FBF1F0E6
:105890007047074880680921B0FBF1F070470000AD
:1058A0001201002060110020401100205011002042
:1058B000701100202DE9F14F86B0069804F028F908
:1058C0000446FE4AFE4B04F037F90CD2069804F069
:1058D0001FF90446FB4AFC4B03F01AFF064604F08E
:1058E00053F9069014E0069804F012F90446F34ABE
:1058F000F64B04F035F90BD2069804F009F904468A
:10590000F04AF14B03F0A5FF064604F03DF906907E
:105910000021069804F054F96ED2069804F0F8F8C5
:1059200004460D46069804F0F3F88046E84AE94B31
:1059300003F095FF064622462B4603F090FFCDE983
:105940000201069804F0E4F80446E34AE34B03F04E
:1059500086FFCDE90001DDE9022303F0D9FECDE9A0
:10596000040104F011F982460021504604F028F9A0
:1059700022D2504604F0CCF806460F468AF0004B7F
:105980005146584603F04EFE8146514603F044FE10
:10599000804604F0BDF8D24AD24BCDE9020103F0B3
:1059A0005EFF32463B46CDE9040103F0B1FE0446FA
:1059B00004F0EAF882468CE0504604F0A9F8044668
:1059C0000D465146504603F02DFE5146039003F01C
:1059D00023FE834604F09CF88046C14AC14B03F085
:1059E0003EFF064622462B4603F092FECDE9040117
:1059F00004F0CAF882466CE0069804F089F8CDE914
:105A00000001069804F084F80646B14AB14B03F051
:105A100026FF0446DDE9002303F021FF8046894686
:105A2000069804F075F80446AB4AAC4B03F017FF38
:105A300042464B46CDE9020103F00BFFCDE90401DC
:105A400004F0A2F882460021504604F0B9F821D2B1
:105A5000504604F05DF88AF0004BCDE90201514652
:105A6000584603F0DFFD8146514603F0D5FD8046E0
:105A700004F04EF806469A4A9A4B03F0F0FE0446AC
:105A8000DDE9022303F044FECDE9040104F07CF8D3
:105A900082461EE0504604F03BF804460D4651464F
:105AA000504603F0BFFD5146039003F0B5FD834619
:105AB00004F02EF806468A4A8A4B03F0D0FE2246AE
:105AC0002B46CDE9040103F023FE804604F05CF888
:105AD0008246504607B0BDE8F08F2DE9F14F86B001
